:100000008EC19BC19AC199C16DC297C196C195C15C
:1000100094C193C192C191C190C18FC18EC10000A2
:1000200000000000000000010101010101010101C7
:1000300001020202020202020202020202020202A1
:100040000202020202020202020303030303030389
:100050000303030303030303040404040404040468
:100060000404040405050505050505050506060641
:100070000606060606070707070707080808080810
:100080000809090909090A0A0A0A0A0B0B0B0B0CD1
:100090000C0C0C0D0D0D0E0E0E0E0F0F0F10101080
:1000A0001111121212131314141515151616171711
:1000B000181819191A1B1B1C1C1D1E1E1F2020217D
:1000C000222323242526272728292A2B2C2D2E2FAF
:1000D0003031323334353738393A3B3D3E3F414297
:1000E000444547484A4C4D4F51525456585A5C5E0D
:1000F00060626466696B6D707275777A7C7F8285E9
:10010000888B8E9194979B9EA2A5A9ACB0B4B8BCE5
:10011000C0C4C9CDD2D6DBE0E5EAEFF4FAFF404334
:1001200046494D5054575B5F62666A6E72767A7EBE
:1001300082868A8E92969A9EA2A6AAAEB2B6BABEBF
:10014000C1C5C8CCCFD3D6D9DCDFE2E4E7EAECEE18
:10015000F0F2F4F6F7F9FAFBFCFDFEFEFFFFFFFFFD
:10016000FFFEFEFDFCFBFAF9F7F6F4F2F0EEECEA26
:10017000E7E4E2DFDCD9D6D3CFCCC8C5C1BEBAB67E
:10018000B2AEAAA6A29E9A96928E8A86827E7A762F
:10019000726E6A66625F5B5754504D494643403DFC
:1001A0003A3734312E2C29272522201E1C1A1817E5
:1001B000151312100F0E0D0B0A0909080706050585
:1001C0000404030302020202010101010100000014
:1001D000000000000000000000000000000000001F
:1001E000000000000000000000000000000000000F
:1001F00001010101010202020203030404050506D4
:10020000070809090A0B0D0E0F1012131517181AFB
:100210001C1E20222527292C2E3134373A3D000F71
:10022000161B1F23272A2D2F323437393B3D3F41E0
:10023000434547494A4C4E4F5152545557585A5BC3
:100240005D5E5F61626364666768696B6C6D6E6F4B
:100250007072737475767778797A7B7C7D7E7F8017
:100260008182838485868788898A8B8C8D8D8E8F09
:100270009091929394949596979899999A9B9C9D16
:100280009E9E9FA0A1A2A2A3A4A5A5A6A7A8A8A937
:10029000AAABABACADAEAEAFB0B1B1B2B3B3B4B567
:1002A000B6B6B7B8B8B9BABABBBCBCBDBEBEBFC0A3
:1002B000C0C1C2C2C3C4C4C5C6C6C7C8C8C9C9CAEA
:1002C000CBCBCCCDCDCECECFD0D0D1D2D2D3D3D438
:1002D000D5D5D6D6D7D8D8D9D9DADADBDCDCDDDD8E
:1002E000DEDEDFE0E0E1E1E2E2E3E4E4E5E5E6E6EC
:1002F000E7E7E8E9E9EAEAEBEBECECEDEDEEEEEF4F
:10030000F0F0F1F1F2F2F3F3F4F4F5F5F6F6F7F7B5
:10031000F8F8F9F9FAFAFBFBFCFCFDFDFEFF1124ED
:100320001FBECFEDCDBF10E0A0E6B0E001C01D9232
:10033000AB36B107E1F76AD1B9C162CE349BFECFCB
:10034000349A64B175B1E0916700F09168006E1B5A
:100350007F0BCB0195958795959587959595879575
:1003600095958795959587958E0F9F1F909368001B
:10037000809367008091650090916600860F971FBB
:1003800095958795909366008093650060916900CC
:1003900070916A00DC01A61BB70BFD01F595E7958E
:1003A000F595E795F595E795E60FF71FF0936A0049
:1003B000E0936900809164008F5F8F738093640085
:1003C0008823D1F580916000909161008150904127
:1003D00008F05AC087E4881691046CF0C401892F94
:1003E000990F990B85958595B401681B790B4B0185
:1003F0000894810891088091620090916300815077
:10040000904108F454C080E0A8168DE7B80664F463
:10041000B5016F5F7F4FCB01892F990F990B8595A0
:1004200085955C01A60EB71E1092610010926000C7
:100430001092630010926200B501CF01F7FD4EC02B
:1004400068177907C4F479EF4A395707D0F0B40137
:10045000CD01B7FD3FC0681779073CF487EF283717
:10046000380740F42857374F08952A3D310510F0DA
:100470002A5D304008954D35510548F34D555040A3
:10048000E6CF4A59594FE3CF70E087167DE79706CC
:100490000CF0B1CFB4016F5F7F4FCB01892F990F63
:1004A000990B859585954C01860E971EA4CF69E220
:1004B000A616B1040CF4B8CFC501892F990F990B7A
:1004C00085958595B501681B790B5B010894A1089A
:1004D000B108AACF909581959F4FBDCF90958195FA
:1004E0009F4FAECF7FB66624240C661C661C350C6D
:1004F000661C68BA7FBE1895482E542E68BD0895B4
:10050000CF92DF92EF92FF920F931F93CF93DF93DF
:1005100086E4882E912C08E2A02EB12CC0E0D0E019
:100520000DDF219685E0C832D807D1F710E000E052
:100530001F5F0B5F412E512E08BDC0E0D0E0FEDEF4
:100540002196C332D105D9F7133391F7C0E0D0E03B
:10055000F5DE2196E3E0C037DE07D1F710E4F12E97
:1005600001E010E0602FF2E0FF0E802F90E0825E4D
:100570009E4FFC01C4908F2D90E0825E9E4FFC0147
:10058000D4906058E62FF0E0E25EFE4FE4904C2CF1
:100590005E2CD8BCC0E0D0E0D1DE2196CB30D105B6
:1005A000D9F70F5F1F4FF2E001301F07D9F6C0E007
:1005B000D0E0C4DE219683E0C037D807D1F7B3EF8F
:1005C000FB2EFC0C0E2D0D501D2DED2CE394FA94FA
:1005D000155001504F2C502E18BDC0E0D0E0AEDEBB
:1005E0002196C332D105D9F71E1589F7C0E0D0E0B6
:1005F000A5DE2196CC32D105D9F7DF91CF911F919D
:100600000F91FF90EF90DF90CF9008950F931F937D
:10061000CF93DF9380B5826080BD87E087BB18BA37
:1006200080E0482E582E18BC83E28ABD81E083BF4B
:1006300084E089BF81EC80BF88E48DBD789486E238
:1006400087B980E883B984EA86B9369A59DF76DEBD
:10065000032F10E0F801E25EFF4F6491C52FD0E058
:10066000FE01E25EFF4F7491E62FF0E0E25EFD4F87
:10067000E49180916000909161008E0F911D9093A4
:10068000610080936000E72FF0E0E25EFD4FE491AF
:1006900080916200909163008E0F911D9093630092
:1006A00080936200462E562E78BDD1CFF89400C0BC
:1006B000F894FFCFFFFFFFFFFFFFFFFFFFFFFFFFEC
:1006C000FFFFFFFFFFFFFFFFFFFFFFFFFFFFFFFF3A
:1006D000FFFFFFFFFFFFFFFFFFFFFFFFFFFFFFFF2A
:1006E000FFFFFFFFFFFFFFFFFFFFFFFFFFFFFFFF1A
:1006F000FFFFFFFFFFFFFFFFFFFFFFFFFFFFFFFF0A
:10070000FFFFFFFFFFFFFFFFFFFFFFFFFFFFFFFFF9
:10071000FFFFFFFFFFFFFFFFFFFFFFFFFFFFFFFFE9
:10072000FFFFFFFFFFFFFFFFFFFFFFFFFFFFFFFFD9
:10073000FFFFFFFFFFFFFFFFFFFFFFFFFFFFFFFFC9
:10074000FFFFFFFFFFFFFFFFFFFFFFFFFFFFFFFFB9
:10075000FFFFFFFFFFFFFFFFFFFFFFFFFFFFFFFFA9
:10076000FFFFFFFFFFFFFFFFFFFFFFFFFFFFFFFF99
:10077000FFFFFFFFFFFFFFFFFFFFFFFFFFFFFFFF89
:10078000FFFFFFFFFFFFFFFFFFFFFFFFFFFFFFFF79
:10079000FFFFFFFFFFFFFFFFFFFFFFFFFFFFFFFF69
:1007A000FFFFFFFFFFFFFFFFFFFFFFFFFFFFFFFF59
:1007B000FFFFFFFFFFFFFFFFFFFFFFFFFFFFFFFF49
:1007C000FFFFFFFFFFFFFFFFFFFFFFFFFFFFFFFF39
:1007D000FFFFFFFFFFFFFFFFFFFFFFFFFFFFFFFF29
:1007E000FFFFFFFFFFFFFFFFFFFFFFFFFFFFFFFF19
:1007F000FFFFFFFFFFFFFFFFFFFFFFFFFFFFFFFF09
:00000001FF
